S01E000052544F532D4F4C45442D58706C61696E65642D50726F2E73726563AD
S214400000602E4020591140005711400057114000C3
S21440001057114000571140005711400000000000A3
S2144000200000000000000000000000003115400005
S2144000305711400000000000D1154000391640001E
S21440004057114000571140005711400057114000CB
S21440005057114000571140005711400057114000BB
S2144000605711400000000000490E40005D0E400061
S214400070710E400057114000571140005711400084
S214400080850E4000990E4000571140005711400021
S214400090571140005711400057114000571140007B
S2144000A0571140005711400057114000571140006B
S2144000B0571140005711400057114000571140005B
S2144000C0571140005711400057114000571140004B
S2144000D0000000005711400000000000571140008B
S2144000E0571140005711400057114000571140002B
S2144000F0571140005711400057114000571140001B
S214400100571140005711400057114000571140000A
S21440011057114000000000000000000000000000F2
S21440012057114000571140005711400057114000EA
S2144001305711400000000000571140005711400082
S21440014010B5054C237833B9044B13B10448AFF3CC
S21440015000800123237010BDD0094020000000001D
S2144001604CA040000C4B43B10C480D4910B5AFF3C2
S21440017000800C48036823B910BD0A48036833B9A9
S2144001807047094B002BF7D0BDE810401847064B88
S214400190002BF5D0184700BF000000004CA04000E0
S2144001A0D40940204CA0400000000000034B1B68D0
S2144001B043F480231943016000207047EC09402037
S2144001C041B9094A136823F08073136002681343E9
S2144001D003607047044A136843F0807313600268F4
S2144001E013430360704700BFEC094020036823EACE
S2144001F00101024B1B68194301607047EC0940201F
S214400200826883689A4203D0826883689342FBD1AF
S2144002101846704708B5074B984203D0064B98429D
S21440022004D008BD1520054B984708BD2A20034B2F
S2144002309847F6E70080004000800540CD0F40001C
S214400240436823F4702343604368090401F4702133
S21440025019434160704730B443F69924056915F058
S214400260020F03D1013CF9D101200CE0446814F0A0
S214400270020F06D0120402F4702211430BB141F073
S2144002808071C160002030BC704732B900EB8100FD
S214400290036B23F001030363704700EB8100036B9D
S2144002A043F001030363704732B900EB8100036BF0
S2144002B023F002030363704700EB8100036B43F0B7
S2144002C0020303637047042A03D06AB1082A16D093
S2144002D0704700EB8100036B23F008030363036B56
S2144002E043F004030363704700EB8100036B23F085
S2144002F008030363036B23F004030363704700EBB8
S2144003008100036B43F008030363E1E700EB8101E0
S2144003100B6B23F0F0030B630B6B1A430A637047B7
S214400320431E1944B1FBF0F0431EFE2B94BF00B2AF
S2144003304FF0FF3070477AB110B4144600EB81019D
S2144003400B6B23F47F430B630A6B42EA04220A6377
S21440035000205DF8044B70474FF0FF3070470000B8
S214400360014B1860704700BFF0094020024B1B68E5
S21440037003EBC01042547047F0094020024B1B6804
S21440038003EBC010405C7047F00940202DE9F04771
S2144003908418802C02DDC0F18004E2B222B3CD087E
S2144003A0A1EBC501012606FA01F1CEB2012B1DD004
S2144003B0002B35D0022B17D10138C7B2D419E4B27E
S2144003C0DFF890A04FF00009DFF88C8021462846E1
S2144003D0D04786EA00024B46D2B221462846C0475E
S2144003E0013CE4B2BC42F1D1BDE8F0870138C7B267
S2144003F0D419E4B2DFF85CA04FF00009DFF858806B
S21440040021462846D04746EA00024B46D2B221460D
S2144004102846C047013CE4B2BC42F1D1BDE8F08773
S2144004200138C7B2D419E4B2DFF82880CE43DFF8EB
S214400430289021462846C04706EA00020023D2B24A
S21440044021462846C847013CE4B2BC42F1D1BDE84B
S214400450F08700BF8D064000890540002DE9F8432F
S2144004609DF820708BB11C46904606464D1EEDB258
S2144004702C44E4B2DFF818903B46424621463046CC
S214400480C847013CE4B2AC42F6D1BDE8F88300BFB1
S2144004908D0340002DE9F04F83B0044688469146D0
S2144004A09B465B7A9BF808200021009149464046CF
S2144004B0214DA8479BF8003013B103B0BDE8F08F3C
S2144004C09BF80820D30812F0070F18BF01339BF89B
S2144004D009A09BF80A70E71B17FB0AF717FB03F700
S2144004E0DBF8043013FA87F71FE06400E4B2013506
S2144004F0EBB29E4210D9EBB208EB0300C0B213F049
S214400500070F08BF17F8014B14F0800FEDD00122FB
S21440051049460A4B9847E8E709F101095FFA89F925
S2144005200AF1FF3A1AF0FF0AC7D09BF80860002E7F
S214400530F2D000252C46DEE75D0440002906400048
S2144005402DE9F843044690461D4689460D4F0E4613
S21440055008E06A7A013242445FFA82F8B14614F8FB
S214400560013F6BB120780A28F3D00D28F7D02B46F0
S21440057042464946B8472B7A99445FFA89F9EEE7EE
S214400580BDE8F8839504400070B504460D4616460F
S2144005901BB90D4B9847B04215D0324629462046E7
S2144005A00A4B984704F00F0040F0B000084CA047B4
S2144005B0C5F3021040F01000A04705F00F00A0471A
S2144005C03046044B984770BD7D0340006D034000A5
S2144005D099064000B90840002DE9F0410D480E4B01
S2144005E098470E4B984740200D4B984700254FF0B4
S2144005F001082F460B4E002443463A46E1B22846B1
S214400600B0470134802CF7D10135EDB2042DF2D13C
S214400610BDE8F081F409402061034000D90640005F
S2144006209906400089054000C3092AD11F2928D8C9
S2144006302DE9F04114460546CE08A1EBC60101223D
S21440064002FA01F75FFA87F8014630460D4B9847A5
S2144006500246012C09D064B1022C0ED00023294654
S2144006603046094CA047BDE8F08148EA0002D2B2C5
S214400670F4E720EA0702D2B2F0E788EA0002D2B2F4
S214400680ECE770477D0340008905400008B5014B04
S214400690984708BD7D03400038B505460822094BFB
S2144006A05A63094C01212046084B984701231A46B5
S2144006B029462046064CA0474FF4FD70054B984708
S2144006C038BD00BF00100E40008000404102400090
S2144006D057024000010040202DE9F843664D4FF494
S2144006E000362E61C5F8A060644B08271F61C3F82A
S2144006F0A0706E66C5F890606E656E62C5F88060E4
S2144007002A6F22F400322A676A6F22F400326A6740
S2144007105F66C3F890705F655F62C3F880701A6F5B
S21440072022F008021A675A6F22F008025A671F60C2
S2144007302E601F632E63DFF87C8100234FF4800217
S2144007404FF0805140464E4CA04700234FF40012D5
S2144007504FF080514046A04700234FF000724FF0C4
S21440076080514046A04700234FF480024FF080510E
S2144007704046A04700234FF400124FF080514046B9
S214400780A04700234FF000724FF080514046A047EC
S2144007903C4C4FF00209C4F800904FF08008C4F873
S2144007A00080636843F0010363603A4601212046B7
S2144007B0354B9847002201212046344B984700226B
S2144007C001212046324B9847636823F0020363605A
S2144007D00022012120462F4B9847636823F0800370
S2144007E06360636843F0100363602B492B482C4BCF
S2144007F09847C2B2012120462A4B984720462A4BAA
S2144008009847012323606E6340F6B830274CA047D4
S2144008102E6340F6B830A0472E63A820244CA0474D
S2144008201F20A047D320A0470020A0474020A04735
S214400830A120A047C820A047DA20A0474846A047A6
S2144008408120A0478F20A047A420A047A620A047ED
S214400850D520A0474046A0478D20A0471420A0475B
S214400860DB20A0474020A047D920A047F120A04742
S214400870AF20A047BDE8F88300120E4000100E409F
S214400880B90C400000800040C70240008B02400088
S214400890A90240000D03400080D1F00880841E006D
S2144008A0210340003703400015024000010040206D
S2144008B09906400000140E4038B505460822094BFC
S2144008C01A63094C01212046084B984701231A46D3
S2144008D029462046064CA0474FF4FD70054B9847E6
S2144008E038BD00BF00100E4000800040410240006E
S2144008F0570240000100402010B51048104B984762
S2144009003E2100200F4B98470F4CA0470028FCD0B4
S2144009100E4B98470E4A0F4B9A620F4CA047002842
S214400920FCD002200D4B984700200D4B98470D4BAE
S21440093098470248024B984710BD00BF00A3E111FC
S2144009402D134000490F40009D0F4000AD0F400062
S214400950013F182000060E40BD0F4000AD0E40007F
S214400960E50E4000211240002DE9F04180B90C46CA
S2144009709046002A0FDD8F18084E094D30682146F4
S2144009802B6898470134BC42F8D14046BDE8F08118
S2144009904FF0FF38F9E78046F7E700BFEC0D402000
S2144009A0E40D40200138022815D82DE9F0410E46C6
S2144009B014469AB10D46DFF838800C4FD8F8000040
S2144009C015F8011B3B68984700280ADBA81B013C2A
S2144009D0F4D1BDE8F0814FF0FF3070471046BDE8D7
S2144009E0F0814FF0FF30BDE8F08100BFE80D4020B9
S2144009F0EC0D4020F8B54FF400425C4B5A60BFF314
S214400A004F8FBFF36F8F5A4B0022C3F850225A695C
S214400A1042F400325A61BFF34F8FBFF36F8FD3F863
S214400A208070C7F34E3607F007000430C7F3C90797
S214400A30B7FA87FE0EF01F0EBFF34F8F4FF0FF340E
S214400A4004FA00FC06FA00F004FA0EF407FA0EFE6A
S214400A501D463A46734640EA0301C5F86012013A1D
S214400A602344B2F1FF3FF6D1013E6044B6F1FF3F6A
S214400A70EFD1BFF34F8F3E4B5A6942F480325A61F2
S214400A80BFF34F8FBFF36F8F3A4A3B495160A1F592
S214400A9080715160BFF34F8FBFF36F8FD3F89022B2
S214400AA022F00102C3F89022D3F8942222F00102E9
S214400AB0C3F89422BFF34F8FBFF36F8F0A202F4C9B
S214400AC0A0470B20A0470C20A0471020A04711208D
S214400AD0A0472B4B4FF480721A61C3F8A0201A63CC
S214400AE0A3F580634FF400625A61C3F8A0205A66AB
S214400AF0C3F890205A651A62C3F88420196F21F40F
S214400B0000611967596F21F400615967C3F8C02026
S214400B10C3F8D420C3F8B0204FF400121A66C3F8C6
S214400B2090205A655A62C3F88020196F21F400114C
S214400B301967596F21F4001159675A60114AD2F863
S214400B40143143F01003C2F814310F4B10221A66CA
S214400B50C3F890205A655A62C3F88020196F114333
S214400B601967596F114359675A60F8BD50180E40BF
S214400B7000ED00E0000C0E400C08005ACD0F40007F
S214400B8000120E400080084000100E40C0F884104E
S214400B9053004FF40042B2FBF3F2013AC2F30D02A7
S214400BA0C0F88C207047016370474163704721F05E
S214400BB00061B1F1405F05D1836B134214BF012041
S214400BC000207047C36BF8E74264B1F1C05F3AD08B
S214400BD013D8B1F1006F25D0B1F1805F0AD1036F11
S214400BE013430367436F416F0B4023EA0203436797
S214400BF0426070470029FBD17047B1F1205F21D099
S214400C0009D8B1F1005FF3D1036F13430367436F15
S214400C1013434367ECE7B1F1405F13D0B1F1605F37
S214400C2010D0E5E710B4016F046FD34321401C4653
S214400C3019400167436F416F0B4023404367426052
S214400C405DF8044B7047036F016F0B4023EA0203C5
S214400C500367436F13434367CAE7416412F0010FCB
S214400C600DD1016612F00A0F0BD0016212F0020F8E
S214400C7009D112F0080F08D0C0F8841005E041668C
S214400C80F0E74162F2E7C0F88010416101607047CA
S214400C9010B4019C41644CB901664BB101654AB938
S214400CA04163016101605DF8044B70474166F4E7BB
S214400CB04165F4E70163F4E770B582B00546164631
S214400CC01C46B1F1005F14D00AD9B1F1405F24D080
S214400CD0B1F1605F21D0B1F1205F17D000201AE05B
S214400CE0B1F1805F05D0B1F1C05F02D0B1F1006FC5
S214400CF0F4D132462846114B984714F0010F02D1E2
S214400D002E66012007E06E66012004E01A46314652
S214400D100B4B9847012002B070BD04F001030093CE
S214400D20C4F38003B1F1605F14BF00220122314654
S214400D302846044CA0470120EDE700BFC90B400001
S214400D405B0C4000910C400012F0100F12D0C0F81F
S214400D50B01012F0200F07D0C0F8D41012F0400F99
S214400D6005D0C0F8C0107047C0F8D010F6E7C0F8FD
S214400D70C4107047C0F8B410704701647047C06C28
S214400D807047806C704700002DE9F0410446884665
S214400D900E4B9847054620460D4B9847054013D0C6
S214400DA00C4C04F1600603E0B4420DD010345DB143
S214400DB020684045F8D161682942F5D0E3689847F5
S214400DC0636825EA0305EFE7BDE8F0817F0D400044
S214400DD0830D4000F40B4020F8B5184C2668062ECC
S214400DE02AD84FF0000C6446154F04E00134E4B2B4
S214400DF0A446A64209D3A64625017D598D42F5D183
S214400E0007EB04156D689542F0D10D4D4FEA0E1E66
S214400E1005EB0E0445F80E106260A3600699E1608B
S214400E200136664505D011461A46064B98470020BF
S214400E30F8BD02490E60F6E70120F8BD640C40207C
S214400E40F40B4020490D400008B50A210148024BEA
S214400E50984708BD000E0E40890D400008B50B218E
S214400E600148024B984708BD00100E40890D4000CF
S214400E7008B50C210148024B984708BD00120E40A9
S214400E80890D400008B510210148024B984708BD1F
S214400E9000140E40890D400008B511210148024B50
S214400EA0984708BD00160E40890D4000032811D013
S214400EB0042812D002280CBF4FF480710021084A43
S214400EC0136B23F440730B431363936E13F0080FB6
S214400ED0FBD070474FF44071F1E74FF40071EEE7F6
S214400EE000060E40174A136B23F070031843106336
S214400EF0936E13F0080F0AD14FF4805311498A6E4F
S214400F0012F0080F03D1013BF9D1012070470D4A7A
S214400F10136B23F0030343F002031363936E13F043
S214400F20080F0AD14FF4805306498A6E12F0080F14
S214400F3005D1013BF9D101207047002070470020C1
S214400F40704700BF00060E40A0B90E48036A09026B
S214400F5089B20D4A1A400D4B1343194301620246AB
S214400F60936E13F0010FFBD0064A116A084B0B43F1
S214400F701362704703490B6A064A1A40064B1343EE
S214400F800B62704700060E40FCFFC8FF01003700AA
S214400F9000003701FCFFC8FE02003701024B986E86
S214400FA000F48030704700BF00060E404FF00052FD
S214400FB0014B9A62704700BF00060E40024B986E87
S214400FC000F00200704700BF00060E403F281ED8C3
S214400FD01F280CD8114B9A6901238340934318D09D
S214400FE0012303FA00F00D4B1861002070472038AB
S214400FF00A4BD3F808210123834093430BD00123A7
S21440100003FA00F0054BC3F80001002070470120AA
S2144010107047002070470020704700BF00060E4013
S214401020436913F0020F02D0C161002070470120CF
S2144010307047436913F0010F03D083690B7000209B
S21440104070470120704710B40B01934214D9C90071
S2144010504B0803EBC202B2FBF1F2D3085C1E4FF61C
S214401060FE718C4201D9012017E0416841F400210D
S21440107041600CE0012010E0590801EBC202B2FBCF
S214401080F3F2D3085C1E4FF6FE718C42F2D812047F
S21440109002F4E0221A43026200205DF8044B7047D7
S2144010A0084BC0F8E43000234360436283628823E1
S2144010B00360242303604FF4807303604FF40023DF
S2144010C0036070470041535570B505460C461646BA
S2144010D00F4B984700220F4B1A60A4B13246216846
S2144010E028460D4B9847024678B96368A1680B437B
S2144010F021690B43E1680B4306490B6069680B4363
S2144011006B60104670BD0122FBE70122F9E700BF85
S214401110A1104000680C4020471040004023036068
S2144011207047102303607047436913F0020F04D0E2
S214401130C1F30801C1610020704701207047436930
S21440114013F0010F05D08369C3F308030B6000203A
S214401150704701207047FEE700B583B0254B264A0E
S2144011609A4210D0254B234A9A420CD2013B9B1AF6
S21440117023F00303043313441F4951F8040B42F889
S214401180040B9A42F9D11E4B1E4A9A420AD2013BA0
S2144011909B1A23F0030304331344002142F8041B34
S2144011A09342FBD1184A194B23F07F039360EFF329
S2144011B01083B3FA83F35B09019372B6BFF35F8F74
S2144011C00022134B1A700199124A136843F47003B5
S2144011D01360BFF34F8FBFF36F8F29B101220C4BC3
S2144011E01A70BFF35F8F62B60B4B98470B4B98470E
S2144011F0FEE700BF000040204CA04000D009402041
S214401200600E4020D009402000ED00E00000400085
S2144012101800402088ED00E0053E400005354000BF
S2144012203B4B1B6B03F00303012B1DD083B1022BFA
S21440123036D0374B1B6B03F07003702B5FD0344BAC
S2144012401A6B3449C2F302120B68D3400B607047E6
S214401250314B5B6913F0800F14BF4FF400424FF4DC
S214401260FA422C4B1A60E4E7294B1B6A13F0807F46
S21440127003D02A4A274B1A60DBE7294A254B1A60D7
S214401280234B1B6A03F07003102B05D0202BD0D1C4
S214401290224A204B1A60CCE7224A1E4B1A60C8E707
S2144012A01B4B1B6A13F0807F16D01C4A194B1A60E2
S2144012B0174B1B6B03F00303022BBAD1144A916AF7
S2144012C0926A1448C1F30A41036801FB0333D2B261
S2144012D0B3FBF2F30360ACE7114A0E4B1A600C4BBB
S2144012E01B6A03F07003102B05D0202BE0D10B4A6D
S2144012F0084B1A60DCE70B4A064B1A60D8E7054AEB
S21440130013680949A1FB03135B081360704700BFCD
S21440131000060E401C00402010180E40001BB70070
S21440132000093D0000127A00ABAAAAAA164B9842C2
S21440133013D9164B984215D9154B984216D9154BCA
S214401340984217D9144B984218D9144B984294BFD8
S214401350134A144A144B1A6070474FF08062124B7F
S2144013601A607047114A104B1A607047104A0E4B6D
S2144013701A6070470F4A0C4B1A6070474FF00422B1
S214401380094B1A60704700BFBFF35E017FE7BD029E
S2144013903FDB1C04FFCE7B05BFC2DA067FB63908AA
S2144013A00005000400060004000C0E400001000486
S2144013B000020004000300040A4B1B6853B1094BAB
S2144013C01B681A180849914208DB1046054A106007
S2144013D018467047054A034B1A60F0E74FF0FF3057
S2144013E0704700BF6C0C4020FCFF4520603040201A
S2144013F04FF0FF3070474FF400534B60002070476B
S214401400012070470020704700F1080343604FF00A
S214401410FF328260C360036100230360704700238D
S2144014200361704743684B609A688A609A68516067
S21440143099600861036801330360704730B40D68F3
S214401440B5F1FF3F02D000F1080202E0026904E075
S2144014501A4653681C68A542FAD253684B60996096
S2144014608A605160086103680133036030BC70478E
S21440147003694268816891608268416851605A6831
S214401480904205D000220261186801381860704703
S21440149082685A60F6E700000D4B1B68B3F1FF3FC9
S2144014A00AD04FF0800372B683F31188BFF36F8F74
S2144014B0BFF34F8F62B6FEE74FF0800372B683F3FA
S2144014C01188BFF36F8FBFF34F8F62B6FEE700BF42
S2144014D02000402006480068006880F3088862B60E
S2144014E061B6BFF34F8FBFF36F8F00DF00BF0000C2
S2144014F008ED00E0DFF80C00016841F4700101607F
S2144015007047000088ED00E04FF0807340F8043CE0
S21440151040F8081C054B40F80C3C40F8202C6FF077
S214401520020340F8243C4438704700BF99144000FA
S214401530064B19680868B0E8F04F80F30988BFF397
S2144015406F8F4FF0000080F311887047780C402072
S214401550704700BF4FF0800372B683F31188BFF325
S2144015606F8FBFF34F8F62B60B4A13680133136019
S214401570012B0FD1094B1B6813F0FF0F0AD04FF019
S214401580800372B683F31188BFF36F8FBFF34F8F1C
S21440159062B6FEE7704700BF2000402004ED00E042
S2144015A00A4B1B6853B94FF0800372B683F3118819
S2144015B0BFF36F8FBFF34F8F62B6FEE7013B034A20
S2144015C013600BB983F31188704700BF200040209A
S2144015D0EFF30980BFF36F8F154B1A681EF0100F9C
S2144015E008BF20ED108A20E9F04F10604DF8043D0A
S2144015F04FF0800072B680F31188BFF34F8FBFF371
S2144016006F8F62B601F0B8F84FF0000080F3118893
S21440161008BC19680868B0E8F04F1EF0100F08BF05
S214401620B0EC108A80F30988BFF36F8F704700BF15
S214401630780C4020704700BF08B5EFF311834FF099
S214401640800272B682F31188BFF36F8FBFF34F8F5D
S21440165062B6054B984718B14FF08052034B1A605C
S214401660002383F3118808BD7524400004ED00E094
S214401670034A044B1A600722043B1A60704700BFB7
S214401680BF27090014E000E000B583B0254B1A7868
S214401690D2B20192FF221A701B78DBB28DF803306B
S2144016A09DF8033003F080031F4A137007221F4B38
S2144016B01A609DF8033013F0800F10D0062200E029
S2144016C00A469DF803305B00DBB28DF803309DF888
S2144016D00330511E13F0800FF2D1144B1A60134A98
S2144016E013681B0203F4E0631360019BDBB20D4AF0
S2144016F013700F4B1A6842F460021A601A6842F080
S21440170060421A600B4B984700220B4B1A600B4BFB
S21440171098470B4A136843F040431360094B984779
S214401720094B984700E400E0700C4020740C4020C1
S21440173020ED00E07116400020004020F5144000E7
S21440174034EF00E0D514400099144000EFF30583D1
S2144017500F2B11D9124A9B5CDBB2124A12789A427E
S2144017600AD94FF0800372B683F31188BFF36F8FA8
S214401770BFF34F8F62B6FEE70B4B1B6803F4E06384
S2144017800A4A126893420AD94FF0800372B683F32E
S2144017901188BFF36F8FBFF34F8F62B6FEE7704777
S2144017A0F0E300E0700C40200CED00E0740C4020AC
S2144017B010B50446064B98472046064B98470446C5
S2144017C0054B98470CB1204610BD044B9847FAE7A6
S2144017D0592440007D3E4000C1254000EF34400083
S2144017E048B110B50446044B98472046034B9847EB
S2144017F0034B984710BD7047592440008D3E40002B
S214401800C125400038B504461546026C5AB90368EF
S214401810002B2ED140681B4B984700236360A36B78
S2144018200133A36338BD6DB98068174B9847A368EA
S214401830226C1344A360626893421CD32368A3605F
S2144018400020ECE7C068104B9847236C5B42E26888
S2144018501A44E26021688A4202D262681344E36016
S214401860022D0AD1A36B53B1A36B013BA3630020A7
S214401870D5E70020D3E70020D1E70020CFE70020BF
S214401880CDE700BF792B4000FD43400030B583B024
S2144018900190446D74B1A26BE36B9A4215D34FF03E
S2144018A0800372B683F31188BFF36F8FBFF34F8FF9
S2144018B062B6FEE74FF0800372B683F31188BFF33B
S2144018C06F8FBFF34F8F62B6FEE7A26B934203D88B
S2144018D00025284603B030BD0A4601A920460B4BDA
S2144018E098470546A36CB3F1FF3F0AD1636A002BC5
S2144018F0EFD004F12400064B9847002818BF012576
S214401900E7E7A36C0133A364E3E700BF0518400094
S2144019104D294000026C72B110B50346C4681444A9
S214401920C4604068844201D31868D8600846D968C5
S214401930014B984710BD7047FD434000F8B504463C
S214401940224B9847A36C002B1BDD214D214F224E86
S2144019500BE0636AABB104F12400B04778B9A36CDE
S214401960013BA364A36C002B0BDD636D002BF0D012
S21440197000212046A8470128F1D1B847EFE7B847ED
S214401980EDE74FF0FF33A364144B98470F4B98474F
S214401990636C002B14DD236993B104F110060E4DE1
S2144019A00C4F07E0636C013B6364636C002B07DD00
S2144019B023692BB13046A8470028F3D0B847F1E753
S2144019C04FF0FF336364054B9847F8BD551540000C
S2144019D08D184000A92A40004D294000A11540001E
S2144019E038B508B304460D461D4B98472268216C0F
S2144019F0E36B03FB01F3D01860600020A063A26095
S214401A005B1A1344E3604FF0FF336364A364FDB98D
S214401A1023692BB104F11000124B984701280ED0D1
S214401A20114B9847012038BD4FF0800372B683F3C0
S214401A301188BFF36F8FBFF34F8F62B6FEE74FF04C
S214401A4080520A4B1A60BFF34F8FBFF36F8FE7E7A2
S214401A5004F11000064DA84704F12400A847DFE72C
S214401A60551540004D294000A115400004ED00E00A
S214401A7009144000F8B550B94FF0800372B683F3AE
S214401A801188BFF36F8FBFF34F8F62B6FEE70646EF
S214401A9017460D4689B101FB00F05930124B984766
S214401AA00446E8B94FF0800372B683F31188BFF35B
S214401AB06F8FBFF34F8F62B6FEE758200A4B9847AA
S214401AC004460028EED02060E663256401212046C7
S214401AD0064B984784F85070002363652046F8BD4F
S214401AE000F158030360EFE7B1174000E1194000EA
S214401AF02DE9F04F85B00192B8B1044601B3022BF0
S214401B002CD01D468846664B9847002834D1019B0A
S214401B10002B38D04FF0800372B683F31188BFF3A2
S214401B206F8FBFF34F8F62B6FEE74FF0800372B6FB
S214401B3083F31188BFF36F8FBFF34F8F62B6FEE714
S214401B40026C002ADBD04FF0800372B683F3118814
S214401B50BFF36F8FBFF34F8F62B6FEE7E26B012A8B
S214401B60CFD04FF0800372B683F31188BFF36F8FE8
S214401B70BFF34F8F62B6FEE700274A4EDFF850A10C
S214401B80DFF82C9142E00027F7E72A4641462046F8
S214401B90454B9847636D9BB129462046434B984733
S214401BA0012807D14FF08052414B1A60BFF34F8F48
S214401BB0BFF36F8F3F4B9847012005B0BDE8F08FCD
S214401BC0636A73B104F124003B4B98470128F1D176
S214401BD04FF08052364B1A60BFF34F8FBFF36F8F74
S214401BE0E8E70028E6D04FF08052314B1A60BFF34A
S214401BF04F8FBFF36F8FDDE72E4B98470020DCE713
S214401C0020462E4B98472E4B98470127B047A26B4D
S214401C10E36B9A42B9D3022DB7D0019B002BEBD091
S214401C200FB902A8D047234B9847264B9847B04752
S214401C30636CB3F1FF3F01D100236364A36CB3F13F
S214401C40FF3F01D10023A3641A4B984701A902A87D
S214401C501D4B9847E0B9B047D4F838B0E76B154B02
S214401C609847BB45CCD1019904F11000174B9847D3
S214401C702046124B9847124B98470028C5D14FF044
S214401C808053C9F80030BFF34F8FBFF36F8FBCE768
S214401C9020460A4B98470A4B984700208DE700BFDE
S214401CA0B52A400055154000051840008D184000E4
S214401CB004ED00E0A11540004D2940003D194000CC
S214401CC0C125400059244000152A400049284000BC
S214401CD0E5294000002836D02DE9F0410446002989
S214401CE03CD0022B48D01E4615468846354B984772
S214401CF0EFF311874FF0800372B683F31188BFF37A
S214401D006F8FBFF34F8F62B6A26BE36B9A4201D3DD
S214401D10022E4FD13246414620462B4B9847A36C65
S214401D20B3F1FF3F41D1636D002B33D0314620469F
S214401D30264B9847002D3FD001283DD1286087F399
S214401D401188BDE8F0814FF0800372B683F31188A6
S214401D50BFF36F8FBFF34F8F62B6FEE7006C00286D
S214401D60BFD04FF0800372B683F31188BFF36F8FF6
S214401D70BFF34F8F62B6FEE7E06B0128B3D04FF05B
S214401D80800372B683F31188BFF36F8FBFF34F8F14
S214401D9062B6FEE7636A8BB104F124000C4B9847A9
S214401DA075B168B101202860C9E7A36C0133A3640C
S214401DB00120C4E70020C2E70120C0E70120BEE7BB
S214401DC00120BCE74D174000051840008D18400024
S214401DD04D29400070B170B50446036CABB14FF06E
S214401DE0800372B683F31188BFF36F8FBFF34F8FB4
S214401DF062B6FEE74FF0800372B683F31188BFF3F6
S214401E006F8FBFF34F8F62B6FEE7036833B30D465E
S214401E10254B9847EFF311864FF0800372B683F355
S214401E201188BFF36F8FBFF34F8F62B6A26BE36B21
S214401E309A4231D2A36B0133A363A36CB3F1FF3F45
S214401E4025D1636DC3B100212046184B98472DB36A
S214401E50012823D1286086F3118870BD4368002B83
S214401E60D5D04FF0800372B683F31188BFF36F8FDF
S214401E70BFF34F8F62B6FEE7636A8BB104F124006E
S214401E800B4B984775B168B101202860E3E7A36C17
S214401E900133A3640120DEE70020DCE70120DAE717
S214401EA00120D8E70120D6E74D1740008D184000A6
S214401EB04D2940002DE9F04784B0019298B1044680
S214401EC0E1B198460F46614B984728BB019B53B3F8
S214401ED04FF0800372B683F31188BFF36F8FBFF362
S214401EE04F8F62B6FEE74FF0800372B683F31188D9
S214401EF0BFF36F8FBFF34F8F62B6FEE7026C002AC8
S214401F00DFD04FF0800372B683F31188BFF36F8F34
S214401F10BFF34F8F62B6FEE700264D4DDFF860A157
S214401F20DFF83C914BE00026F7E7E5683946204667
S214401F30484B9847B8F1000F1DD1A36B013BA363F4
S214401F40236813B9444B9847606023696BB104F12A
S214401F501000424B9847012807D14FF08052404B23
S214401F601A60BFF34F8FBFF36F8F3E4B98470120E9
S214401F7004B0BDE8F087E560636A002BF5D004F155
S214401F802400364B98470028EFD04FF08052344B11
S214401F901A60BFF34F8FBFF36F8FE6E7314B98471A
S214401FA00020E5E7A84760682F4B98472D4B984799
S214401FB030E020462D4B98472D4B98470126A847A2
S214401FC0A36B002BB1D1019B002BE7D00EB902A822
S214401FD0D047244B9847274B9847A847636CB3F1A4
S214401FE0FF3F01D100236364A36CB3F1FF3F01D1EF
S214401FF00023A3641B4B984701A902A81E4B984791
S214402000E8B9A847A66B174B9847002ED1D123684E
S214402010002BC7D0019904F12400184B984720465E
S214402020124B9847124B98470028C7D14FF0805321
S214402030C9F80030BFF34F8FBFF36F8FBEE720461F
S2144020400A4B98470A4B9847002091E7B52A40002C
S2144020505515400015194000352C40004D294000CC
S21440206004ED00E0A1154000D52A40003D1940008F
S214402070C125400059244000152A40004928400008
S214402080E529400010B40B4B1B6853B10123094CA3
S21440209054F8332032B10133082BF9D15DF8044BA4
S2144020A070470023034A42F8331002EBC3035860DC
S2144020B0F4E700BFF00D402070B504460D461646C6
S2144020C00F4B9847636CB3F1FF3F0BD0A36CB3F153
S2144020D0FF3F0AD00B4B9847A36B4BB120460A4BA9
S2144020E0984770BD00236364F0E70023A364F1E7DC
S2144020F03246294604F12400044B9847EEE700BFD9
S21440210055154000A11540003D194000CD2840001F
S214402110084B1B681B683BB1064B1B68DB68DB68DB
S2144021205A68054B1A6070474FF0FF32024B1A60F0
S214402130704700BF7C0C4020280D402010B50F4B48
S2144021401B6858600E4B1B6898420ED304460D4BD6
S21440215018680A4B196804310B4B98470B4B1B68A1
S2144021609C4201D2094B1C6010BD094B1868034BBA
S21440217019680431044B984710BD00BF780C4020C6
S214402180700D40207C0C40203D144000280D40201F
S214402190800C40202DE9F04F83B00C9DDDF834A034
S2144021A00E9E60B1042D15D94FF0800372B683F3AE
S2144021B01188BFF36F8FBFF34F8F62B6FEE74FF0C5
S2144021C0800372B683F31188BFF36F8FBFF34F8FD0
S2144021D062B6FEE70190984691460F4636B99000A3
S2144021E0624B98470646002800F09E8058205F4B7A
S2144021F098470446002800F0948006634FEA890218
S214402200A52130465A4B98476FF040464E44236BC4
S21440221003EB860323F007063B7884F834303B789C
S214402220002B40F08480002784F83D70E562A5646A
S214402230E76404F104094846DFF884B1D84704F15E
S2144022401800D8472461C5F10503A3616462276579
S21440225084F85470424601993046464B9847206071
S214402260BAF1000F01D0CAF80040434B9847434AA2
S214402270136801331360424B1B68002B66D1404BFA
S2144022801C601368012B21D13E4F38463E4EB04766
S21440229007F11400B04707F12800B04707F13C00AB
S2144022A0B04707F15000B047DFF818814046B047C6
S2144022B0364F3846B0473648B0473648B047364877
S2144022C0B047364BC3F80080354B1F60354A13681D
S2144022D0013313602364E06A334A11680123834064
S2144022E00B43136000EB80004946264B03EB80000F
S2144022F02E4B98472E4B98472E4B1B68002B31D0C1
S2144023001F4B1B68DB6A9D422ED94FF080522A4BEA
S2144023101A60BFF34F8FBFF36F8F012003B0BDE845
S214402320F08F3046254B98474FF0FF30F6E73B4658
S21440233004F134020937597802F8011F13F8011FD7
S21440234000293FF470AFBB42F5D16CE7194B1B68D0
S214402350002BBBD10A4B1B68DB6A9D42B6D3084BA9
S2144023601C60B3E70120D9E70120D7E7B11740004A
S214402370314540000915400055154000E80C402006
S214402380780C4020840C402009144000140D402056
S214402390300D40205C0D4020480D40207C0C4020F5
S2144023A0800C4020F40C4020FC0C402025144000BB
S2144023B0A1154000440D402004ED00E0E117400028
S2144023C01F144000000D402010B584B00023039336
S2144023D00293019300934FF4006217491748184C34
S2144023E0A04701280BD020BB4FF0800372B683F382
S2144023F01188BFF36F8FBFF34F8F62B6FEE7114B66
S21440240098470128EFD14FF0800372B683F31188C6
S214402410BFF36F8FBFF34F8F62B64FF0FF320A4B5A
S2144024201A600122094B1A600022094B1A60094BB8
S214402430984704B010BD00BFF89C4000E12640001D
S21440244095214000212D4000280D4020440D40207D
S214402450700D402089164000024A1368013313600D
S214402460704700BFF00C4020014B1868704700BF13
S214402470700D40202DE9F047424B1B68002B78D169
S214402480414B1A6801321A601E68D6B93F4B1B682A
S2144024901B6853B14FF0800372B683F31188BFF3C5
S2144024A06F8FBFF34F8F62B6FEE7384A1168384BDE
S2144024B0186810601960374A136801331360364B4A
S2144024C09847364B1B689E4218D20024344B1B68F4
S2144024D0DB6A03EB8303334A52F82330022B28BFD0
S2144024E00124314B1B680BB9304B9847304B1B6867
S2144024F0002B0CBF20460120BDE8F0870024DFF803
S2144025008C90DFF8B8802B4F1FE04FF0FF32234B04
S2144025101A60DBE7214A1360D8E705F11800C04788
S214402520E86A3A680123834013433B6000EB80002F
S21440253051461C4B03EB80001F4B9847184B1B68BB
S214402540EA6ADB6A9A4228BF0124D9F800301B6841
S214402550002BDAD0D9F80030DB68DD686B689E4225
S214402560D8D305F1040A5046C047AB6A002BD4D1F5
S214402570D6E70D4A1368013313600C4B9847002486
S214402580B4E700BFF00C4020700D40207C0C40208B
S214402590800C40202C0D402011214000280D40206A
S2144025A0780C4020840C4020EC0C4020ED34400059
S2144025B0740D4020FC0C402025144000711440004F
S2144025C02DE9F843384B1B6853B94FF0800372B679
S2144025D083F31188BFF36F8FBFF34F8F62B6FEE76A
S2144025E0324B9847304B1A68013A1A601B68002BEA
S2144025F055D12F4B1B68002B32D100242D4B9847CA
S2144026002046BDE8F883FB68DC6804F11800B04754
S21440261004F104084046B047E06A2A680123834034
S21440262013432B6000EB8000414609EB8000224BB1
S2144026309847224B1B68E26ADB6A9A420CD23B6898
S214402640002BE0D11E4B1B68DBB11D4B1B68C3B192
S2144026501C4E1D4D1A4C0EE001221B4B1A60EEE735
S2144026601A4F1B4E1B4DDFF87490E8E72368013B7A
S214402670236023682BB1B0470028F7D001232B6096
S214402680F4E7114B1B68012B0BD14FF08052124BD5
S2144026901A60BFF34F8FBFF36F8F0124AEE700245D
S2144026A0ACE70024AAE700BFF00C402055154000D8
S2144026B0E80C4020A115400025144000780C40202E
S2144026C0EC0C402075244000740D4020300D402016
S2144026D071144000FC0C402004ED00E0840C4020C7
S2144026E080B5DFF88880194EDFF884902AE0184BD2
S2144026F01B68012B1ED82B68002BF8D0C0473468C7
S214402700B847002CF7D0134B9847F368DC68201D79
S214402710114B9847114A1368013B13602B68013BE5
S2144027202B600F4B9847206BDFF848A0D0472046D9
S214402730D047E0E74FF08053C9F80030BFF34F8FE3
S214402740BFF36F8F074D084FD5E700BF5C0D4020A5
S214402750840C40205515400071144000E80C402081
S214402760A1154000F80C4020C125400059244000E7
S21440277004ED00E0E11740002D4B1B68002B2CD1E8
S21440278010B500222B4B1A602B4B1B681B6B1A682C
S214402790B2F1A53F03D15A68B2F1A53F21D0264BEE
S2144027A0186819683431254B9847254B1B68B3FA8F
S2144027B083F3DBB2C3F11F0303EB8301214A52F8D4
S2144027C02120BAB94FF0800372B683F31188BFF365
S2144027D06F8FBFF34F8F62B6FEE70122154B1A602C
S2144027E070479A68B2F1A53FD9D1DB68B3F1A53FEF
S2144027F0D5D1DAE7134A9900C81802EB800044683E
S21440280064684460194402460832944209D003EB97
S21440281083030C4A02EB83035B68DA68064B1A6054
S21440282010BD6068074A02EB81025060EFE700BFC8
S214402830F00C4020740D4020780C4020D5344000E9
S214402840FC0C4020840C402038B5E0B10C46174DB7
S21440285029681831164B984728680430154B984716
S21440286040B92A6814490B68D06A0122824023EA9C
S21440287002030B60B4F1FF3F10D0104B18682044A1
S2144028800F4B984738BD4FF0800372B683F31188DC
S214402890BFF36F8FBFF34F8F62B6FEE7034B1968E7
S2144028A004310848084B984738BD00BF780C402094
S2144028B03D14400071144000FC0C4020700D402038
S2144028C03D214000480D402025144000E8B170B539
S2144028D015460C46164E31681831164B98473068E8
S2144028E00430154B984740B9326814490B68D06A93
S2144028F00122824023EA02030B60012D10D0104BC8
S214402900186820440F4B984770BD4FF0800372B64E
S21440291083F31188BFF36F8FBFF34F8F62B6FEE726
S214402920034B196804310848024B984770BD00BFF6
S214402930780C40202514400071144000FC0C4020C8
S214402940700D40203D214000480D402038B5C368FA
S214402950DC6824B304F1180528461A4B98471A4BEE
S2144029601B683BBB251D2846164B9847E06A174A0E
S2144029701168012383400B43136000EB8000294617
S214402980134B03EB8000134B9847134B1B68E26ACC
S214402990DB6A9A4213D90120104B186038BD4FF0BD
S2144029A0800372B683F31188BFF36F8FBFF34F8FE8
S2144029B062B6FEE729460A48064B9847E5E70020F8
S2144029C038BD00BF71144000F00C4020FC0C402085
S2144029D0840C402025144000780C4020740D402084
S2144029E0300D402030B1094A12680260084A126829
S2144029F0426070474FF0800372B683F31188BFF38E
S214402A006F8FBFF34F8F62B6FEE700BF2C0D40209E
S214402A10700D402038B5C0B1044609B30D461D4B75
S214402A2098471D4B1A682B68B3F1FF3F2ED01B49C1
S214402A3009682068884202D061688A4228D2616864
S214402A40501A834217D801241CE04FF0800372B618
S214402A5083F31188BFF36F8FBFF34F8F62B6FEE7E5
S214402A604FF0800372B683F31188BFF36F8FBFF3C6
S214402A704F8F62B6FEE79B1A0B442B602046084BEE
S214402A8098470024074B9847204638BD0024F9E76E
S214402A900124F7E755154000700D40202C0D4020CE
S214402AA0E5294000A11540000122014B1A607047FD
S214402AB0740D4020054B1B6833B1054B1B68002B3B
S214402AC00CBF02200020704701207047440D402074
S214402AD0F00C4020002844D038B50446C26A21494C
S214402AE00968C96A8A4214D28169002905DB1D49F2
S214402AF00968C96AC1F10501816102EB82021A497F
S214402B0001EB82026169914204D0164A1268D26A89
S214402B10E26238BD251D2846144B984770B9E36AD3
S214402B2003EB8301104A52F821203AB91048026854
S214402B30012101FA03F322EA03030360094B1B68F1
S214402B40D86AE0620A4A1168012383400B43136047
S214402B5000EB80002946044B03EB8000054B98476A
S214402B6038BD7047780C4020840C402071144000DB
S214402B70FC0C40202514400000284DD038B50446B3
S214402B80274A126890420AD04FF0800372B683F309
S214402B901188BFF36F8FBFF34F8F62B6FEE7C26CEC
S214402BA052B94FF0800372B683F31188BFF36F8F2C
S214402BB0BFF34F8F62B6FEE7013AC264C06AA16CAB
S214402BC088422BD052BB251D2846164B984768B9DD
S214402BD0E16A01EB8102144B53F8223033B91348B3
S214402BE0036801228A4023EA02030360A06CE06285
S214402BF0C0F10503A3610D4A1168012404FA00F3ED
S214402C000B43136000EB80002946074B03EB800024
S214402C10074B9847204638BD00207047002038BDF7
S214402C20780C402071144000840C4020FC0C40205E
S214402C3025144000054B1B6823B1044B1A68D36C1F
S214402C400133D364014B1868704700BF780C4020AE
S214402C5008B54160006191420CD8D21A83699A4205
S214402C6001D3012008BD011D094B1868094B984740
S214402C70002008BD9A4203D2994201D3012008BDE4
S214402C80011D054B1868034B9847002008BD00BF40
S214402C907C0D40203D144000780D402070B5154B0B
S214402CA09847154B1B6813B1144B984770BD144D8D
S214402CB02846144EB047144C2046B047134B1D6070
S214402CC0134B1C60002210210520124B98470A4BDC
S214402CD0186018B11049114B9847E5E74FF080034C
S214402CE072B683F31188BFF36F8FBFF34F8F62B610
S214402CF0FEE700BF55154000AC0D4020A115400032
S214402D00800D402009144000940D4020780D40204E
S214402D107C0D4020751A4000009D400085204000F4
S214402D2010B584B00F4B98470F4B1B6873B1002308
S214402D30039302930193042200924FF480520B496E
S214402D400B480C4CA04708B104B010BD4FF08003B0
S214402D5072B683F31188BFF36F8FBFF34F8F62B69F
S214402D60FEE700BF9D2C4000AC0D4020089D400073
S214402D70A12E400095214000D8B130B585B015460B
S214402D800446154A106820B31A46009101950294ED
S214402D90052919DC114B984702284FF000030CBF59
S214402DA0089A1A4669460C4800680D4CA04705B07C
S214402DB030BD4FF0800372B683F31188BFF36F8F38
S214402DC0BFF34F8F62B6FEE700236946054CA04727
S214402DD0EDE70020EBE700BFAC0D4020B52A4000F1
S214402DE0F11A4000D51C40002DE9F04782B08046DD
S214402DF0244B98470746244B1B6898421BD3002316
S214402E00C8F80030204B1F60384602B0BDE8F08757
S214402E10002100910B46524620461C4CA04760B904
S214402E204FF0800372B683F31188BFF36F8FBFF302
S214402E304F8F62B6FEE7164D164E2B681A68C2B123
S214402E40DB68D3F800A0DC6804F104094846B047C4
S214402E50636A20469847E369012BEED1A369534441
S214402E609A45D5D263602461494628680A4B9847FC
S214402E70E3E70A4A10680649086013600123C8F869
S214402E800030BFE769244000A80D4020792D40005F
S214402E90780D4020711440003D1440007C0D4020C9
S214402EA02DE9F04788B0754E754FDFF8FC91DFF896
S214402EB0FC8133681A68002A00F0CE80DB681C6804
S214402EC0B84704A86F4B98470546049B002B44D14F
S214402ED0A04212D20022611B6B4B18686B4B98477E
S214402EE06B4B984700283AD14FF08053C9F80030D2
S214402EF0BFF34F8FBFF36F8F31E0654B9847336812
S214402F00DB68D3F80CA00AF10400C047DAF81C309E
S214402F10012B04D0DAF82430504698471FE0DAF800
S214402F20181023462A46214450465A4DA8470128A1
S214402F30F0D1002100910B4622465046564CA04701
S214402F400028E7D14FF0800372B683F31188BFF3B1
S214402F506F8FBFF34F8F62B6FEE74D4B98474A4D93
S214402F604E4C06E007990698059B9847049B002B15
S214402F7009DA00231A4604A92868A047002898D0F2
S214402F80049B002BEEDBDDF818A0DAF8143013B102
S214402F900AF10400C04703A83A4B9847049B092B04
S214402FA0E7D801A252F823F0D12F4000D12F40009D
S214402FB0D12F4000732F4000253040005130400054
S214402FC0D12F4000D12F4000732F400025304000C5
S214402FD0059CDAF8181023460246214450462D4CEC
S214402FE0A0470128BCD1DAF8243050469847DAF892
S214402FF01C30012BB4D1DAF81820002100910B4682
S214403000059802445046244CA0470028A8D14FF0CB
S214403010800372B683F31188BFF36F8FBFF34F8F71
S21440302062B6FEE70599CAF8181031B10346024663
S21440303001445046174CA04792E74FF0800372B6C3
S21440304083F31188BFF36F8FBFF34F8F62B6FEE7EF
S2144030505046134B984783E7B84704A8094B984710
S2144030600546049B002B7FF478AF0E4B1B681A680E
S214403070B2FA82F2520900242DE700BF780D4020B4
S21440308059244000E92D4000AC0D4020B9204000B6
S214403090C1254000512C4000792D4000B51E40000F
S2144030A0E11740007C0D402004ED00E07114400024
S2144030B000B583B002A9002341F8043D034B1868CD
S2144030C0034B984703B05DF804FB00BF340E402026
S2144030D0D51D400010B582B04FF080424FF02051D1
S2144030E01548164B984768B91548164B984702A995
S2144030F041F8040D00231A4613480068134CA047B5
S21440310002B010BD0E4C00212046114B98470121BD
S2144031102046104B9847104B0822C3F88020C3F82F
S2144031208021802183F803131A604FF440312046F3
S2144031300A4B9847E4E700BF00140E40AF0B400030
S21440314030180E4001024000300E4020D51C400092
S214403150C1014000AD01400000E100E0ED0140004B
S2144031602DE9F0478CB0504B9847504C4FF4806355
S21440317023604FF0800884F80A834D4D09234FF4AE
S21440318000624FF0205128464A4EB0473C224FF44A
S21440319000612846484B98474FF400612846474F01
S2144031A0B847474B009350234FF400620A21284605
S2144031B0444DA8470C20444B984700234FF40052F8
S2144031C04FF060514148B0474FF48033236084F855
S2144031D010833F4C00234FF080424FF02051204652
S2144031E0B0474FF080412046B8473A4B00934023C3
S2144031F04FF0804210212046A847DFF8D0A04FF07D
S2144032000008DFF81C9126A7D7E9006745E00023B1
S2144032101A460BA930480068A047B0B900234FF4BF
S214403220FA7219462868A0470128F0D14FF4005199
S21440323050462A4B98474FF4FD70294B98474FF419
S21440324000515046274B9847E1E70B98264B984746
S21440325042464B46254CA047254C32463B46A04767
S2144032600022244BA0470022234BA047234B9847DD
S2144032700246234903A8234B984703A8224B984766
S214403280224D2B460C2219210DEB0200204CA04764
S2144032902B460C2241211F48A0471F4D1F4CBDE71F
S2144032A00000000000707540D905400000E100E0D5
S2144032B0000E0E40B90C40008D0B40007B0D4000C8
S2144032C0B1304000D90D4000CD0F400000120E40F6
S2144032D000140E40D5304000300E4020AB0B40006E
S2144032E001004020A70B4000A5384000E53B4000C9
S2144032F0913940000000E03F00005940B53D400095
S214403300549D4000A9474000553E40000C004020D8
S21440331041054000589D4000340E4020B51E4000F8
S2144033200040DF40F0B583B005460C4600230193CD
S2144033302A4B984213D02A4B984218D0294B984291
S2144033401DD0294B9D4222D0284B9D4227D0284B4A
S2144033509D422ED0274B9D4235D003B0F0BD1F4630
S214403360254E21463846B0470028FAD1E9E71F46A1
S214403370214E21463846B0470028FAD1E4E71F469A
S2144033801D4E21463846B0470028FAD1DFE71F4693
S214403390194E21463846B0470028FAD1DAE71E468D
S2144033A0164D01A93046A8470028FAD1019B237044
S2144033B0D3E71E46114D01A93046A8470028FAD14A
S2144033C0019B2370C9E71E460C4D01A93046A8470D
S2144033D00028FAD1019B2370BFE700BF00080E40CB
S2144033E0000A0E40001A0E40001C0E4000400240EC
S2144033F00080024000C00240331040003F114000B1
S21440340070B50C462A4B984213D02A4B984219D096
S214403410294B98421FD0294B984225D0284B98429A
S2144034202BD0284B984231D0274B984237D000209B
S21440343070BD1E46254D21463046A8470028FAD185
S214403440012070BD1E46214D21463046A847002823
S214403450FAD1012070BD1E461C4D21463046A84775
S2144034600028FAD1012070BD1E46184D2146304630
S214403470A8470028FAD1012070BD1E46144D2146AB
S2144034803046A8470028FAD1012070BD1E46104D90
S21440349021463046A8470028FAD1012070BD1E4676
S2144034A00B4D21463046A8470028FAD1012070BD72
S2144034B000080E40000A0E40001A0E40001C0E4047
S2144034C0004002400080024000C002402110400000
S2144034D02911400008B50A4601460248024B984763
S2144034E0FEE700BF5C9D4000553E400070474FF0F1
S2144034F0800372B683F31188BFF36F8FBFF34F8F8D
S21440350062B6FEE700B58BB02C4B98472C4B9847DD
S2144035100022042120202B4CA0472B4B186003226E
S21440352000210120A047294B1860002842D0284D92
S214403530284B1D60284A294B1A60294A294B1A6095
S2144035404FF4E1330493C02305934FF4006306938E
S2144035500024079408940E20234B9847234A04A936
S2144035602846234B98472846224B98472846224BC6
S2144035709847224E336821469868214DA8473368BD
S21440358021465868A847336821469868A847039458
S21440359002940194009423464FF4C06219491A4895
S2144035A01A4CA047012802D019481A4B98471A4B84
S2144035B09847FEE71948174B9847B8E7F908400080
S2144035C0F5094000751A4000300E4020340E402069
S2144035D000800240EC0D402001344000E80D4020C1
S2144035E025334000E40D4020CD0F400080D1F00848
S2144035F0C91040001D114000231140002400402007
S214403600094640002C9D4000613140009521400015
S214403610349D4000553E4000C9234000109D400068
S21440362081F0004102E000BF83F0004330B54FEA2E
S21440363041044FEA430594EA050F08BF90EA020F9B
S2144036401FBF54EA000C55EA020C7FEA645C7FEA2E
S214403650655C00F0E2804FEA5454D4EB5555B8BF51
S2144036606D420CDD2C4480EA020281EA030382EAC2
S214403670000083EA010180EA020281EA0303362D54
S21440368088BF30BD11F0004F4FEA01314FF4801C27
S2144036904CEA113102D0404261EB410113F0004F39
S2144036A04FEA03334CEA133302D0524263EB4303F0
S2144036B094EA050F00F0A780A4F10104D5F1200E8E
S2144036C00DDB02FA0EFC22FA05F2801841F10001E9
S2144036D003FA0EF2801843FA05F359410EE0A5F1BD
S2144036E020050EF1200E012A03FA0EFC28BF4CF0EE
S2144036F0020C43FA05F3C01851EBE37101F00045A4
S21440370007D54FF0000EDCF1000C7EEB00006EEBB0
S2144037100101B1F5801F1BD3B1F5001F0CD349083A
S2144037205FEA30004FEA3C0C04F101044FEA445291
S21440373012F5800F80F09A80BCF1004F08BF5FEA18
S214403740500C50F1000041EB045141EA050130BDF8
S2144037505FEA4C0C404141EB010111F4801FA4F19B
S2144037600104E9D191F0000F04BF01460020B1FAF0
S21440377081F308BF2033A3F10B03B3F120020CDA28
S2144037800C3208DD02F1140CC2F10C0201FA0CF006
S21440379021FA02F10CE002F11402D8BFC2F1200C6B
S2144037A001FA02F120FA0CFCDCBF41EA0C01904021
S2144037B0E41AA2BF01EB0451294330BD6FEA04046A
S2144037C01F3C1CDA0C340EDC04F11404C4F1200255
S2144037D020FA04F001FA02F340EA030021FA04F367
S2144037E045EA030130BDC4F10C04C4F1200220FABE
S2144037F002F001FA04F340EA0300294630BD21FAFC
S21440380004F0294630BD94F0000F83F4801306BFC1
S21440381081F480110134013D4EE77FEA645C18BFB5
S2144038207FEA655C29D094EA050F08BF90EA020F4C
S21440383005D054EA000C04BF1946104630BD91EA44
S214403840030F1EBF0021002030BD5FEA545C05D147
S2144038504000494128BF41F0004130BD14F5800486
S2144038603CBF01F5801130BD01F0004545F0FE41FA
S21440387041F470014FF0000030BD7FEA645C1ABF2F
S214403880194610467FEA655C1CBF0B46024650EA66
S214403890013406BF52EA033591EA030F41F4002192
S2144038A030BD00BF90F0000F04BF0021704730B518
S2144038B04FF4806404F132044FF000054FF00001ED
S2144038C050E700BF90F0000F04BF0021704730B5AE
S2144038D04FF4806404F1320410F0004548BF404283
S2144038E04FF000013EE700BF42004FEAE2014FEAD8
S2144038F031014FEA02701FBF12F07F4393F07F4FB3
S21440390081F06051704792F0000F14BF93F07F4FE4
S214403910704730B54FF4607401F0004521F0004127
S21440392020E700BF50EA010208BF704730B54FF0AD
S21440393000050AE050EA010208BF704730B511F0B2
S214403940004502D5404261EB41014FF4806404F1EA
S21440395032045FEA915C3FF4DCAE4FF003025FEA6C
S214403960DC0C18BF03325FEADC0C18BF033202EBF4
S214403970DC02C2F1200300FA03FC20FA02F001FA4E
S21440398003FE40EA0E0021FA02F11444C1E600BFED
S21440399070B54FF0FF0C4CF4E06C1CEA11541DBFA0
S2144039A01CEA135594EA0C0F95EA0C0F00F0DEF86B
S2144039B02C4481EA030621EA4C5123EA4C5350EA50
S2144039C0013518BF52EA033541F4801143F48013A1
S2144039D038D0A0FB02CE4FF00005E1FB02E506F032
S2144039E00042E0FB03E54FF00006E1FB03569CF087
S2144039F0000F18BF4EF0010EA4F1FF04B6F5007F8D
S214403A0064F5407404D25FEA4E0E6D4146EB0606FE
S214403A1042EAC62141EA55514FEAC52040EA5E5087
S214403A204FEACE2EB4F1FD0C88BFBCF5E06F1ED831
S214403A30BEF1004F08BF5FEA500E50F1000041EB68
S214403A40045170BD06F0004646EA010140EA020015
S214403A5081EA0301B4EB5C04C2BFD4EB0C0541EA37
S214403A60045170BD41F480114FF0000E013C00F34C
S214403A70AB8014F1360FDEBF002001F0004170BD70
S214403A80C4F10004203C35DA0C341BDC04F1140489
S214403A90C4F1200500FA05F320FA04F001FA05F215
S214403AA040EA020001F0004221F0004110EBD370E2
S214403AB021FA04F642EB06015EEA430E08BF20EA0E
S214403AC0D37070BDC4F10C04C4F1200500FA04F3B1
S214403AD020FA05F001FA04F240EA020001F0004143
S214403AE010EBD37041F100015EEA430E08BF20EAB6
S214403AF0D37070BDC4F1200500FA05F24EEA020EFE
S214403B0020FA04F301FA05F243EA020321FA04F02C
S214403B1001F0004121FA04F220EA020000EBD370E3
S214403B205EEA430E08BF20EAD37070BD94F0000FE3
S214403B300FD101F00046400041EB010111F4801F17
S214403B4008BF013CF7D041EA060195F0000F18BFC8
S214403B50704703F00046520043EB030313F4801F04
S214403B6008BF013DF7D043EA0603704794EA0C0FBE
S214403B700CEA135518BF95EA0C0F0CD050EA4106D4
S214403B8018BF52EA4306D1D181EA030101F0004151
S214403B904FF0000070BD50EA410606BF1046194679
S214403BA052EA430619D094EA0C0F02D150EA013685
S214403BB013D195EA0C0F05D152EA03361CBF1046C6
S214403BC019460AD181EA030101F0004141F0FE4165
S214403BD041F470014FF0000070BD41F0FE4141F4E9
S214403BE0780170BD70B54FF0FF0C4CF4E06C1CEAE9
S214403BF011541DBF1CEA135594EA0C0F95EA0C0F9E
S214403C0000F0A7F8A4EB050481EA030E52EA033558
S214403C104FEA013100F088804FEA03334FF0805579
S214403C2045EA131343EA12634FEA022245EA1115A6
S214403C3045EA10654FEA00260EF000419D4208BF57
S214403C40964244F1FD0404F5407402D25B084FEA04
S214403C503202B61A65EB03055B084FEA32024FF4B0
S214403C6080104FF4002CB6EB020E75EB030E22BF0D
S214403C70B61A754640EA0C005B084FEA3202B6EBCD
S214403C80020E75EB030E22BFB61A754640EA5C007C
S214403C905B084FEA3202B6EB020E75EB030E22BF0C
S214403CA0B61A754640EA9C005B084FEA3202B6EB0D
S214403CB0020E75EB030E22BFB61A754640EADC00CC
S214403CC055EA060E18D04FEA051545EA16754FEA2E
S214403CD006164FEAC30343EA52734FEAC2025FEA4C
S214403CE01C1CC0D111F4801F0BD141EA00014FF0DB
S214403CF000004FF0004CB6E711F4801F04BF0143AC
S214403D000020B4F1FD0C88BFBCF5E06F3FF6AFAEC7
S214403D10B5EB030C04BFB6EB020C5FEA500C50F157
S214403D20000041EB045170BD0EF0004E4EEA1131DA
S214403D3014EB5C04C2BFD4EB0C0541EA045170BDE1
S214403D4041F480114FF0000E013C90E645EA060E25
S214403D508DE60CEA135594EA0C0F08BF95EA0C0F53
S214403D603FF43BAF94EA0C0F0AD150EA01347FF49B
S214403D7034AF95EA0C0F7FF425AF104619462CE772
S214403D8095EA0C0F06D152EA03353FF4FDAE1046D5
S214403D90194622E750EA410618BF52EA43067FF426
S214403DA0C5AE50EA41047FF40DAF52EA43057FF4B6
S214403DB0EBAE12E74FEA410212F5001215D211D5CA
S214403DC06FF47873B3EB625212D94FEAC12343F0D3
S214403DD0004343EA505311F0004F23FA02F018BF55
S214403DE0404270474FF00000704750EA013005D11E
S214403DF011F0004008BF6FF0004070474FF00000E1
S214403E00704700BF70B50F4E0F4D761BB61018BFEB
S214403E10002405D0013455F8043B9847A642F9D112
S214403E200A4E0B4D761B06F0FBF8B61018BF002462
S214403E3006D0013455F8043B9847A642F9D170BDE8
S214403E4070BD00BF2CA040002CA0400034A0400015
S214403E502CA040000FB400B5074983B004AB0868F7
S214403E6053F8042B8168019301F0A6FF03B05DF878
S214403E7004EB04B0704700BF24004020024B0146CC
S214403E80186800F00BB800BF24004020024B0146E3
S214403E90186804F06DB800BF240040202DE9F04FAC
S214403EA001F10B06162E83B0054640F29E8036F092
S214403EB0070600F1BD80B14200F2BA8000F086FBF2
S214403EC0B6F5FC7FC0F09382730A00F0B880042BEE
S214403ED000F27981B30903F1390003F1380EC300CB
S214403EE0BF4F3B44A3F108015C68A14206D10CE0F9
S214403EF0002A80F2AA80E468A14206D0636823F0D4
S214403F0003039A1B0F2AF3DD70463C69DFF8E4E2B0
S214403F10744500F0AB81636823F003039A1B0F2AB5
S214403F2000F39081002AC7F814E0C7F810E080F24A
S214403F309D80B3F5007F80F06181DB0803F1010CC2
S214403F4099107A6857F83C80C4F8088001238B4063
S214403F5007EBCC0113430839E1607B6047F83C40EF
S214403F60C8F80C408210012494409C4200F28B809A
S214403F701C4206D120F0030064001C4200F10400FD
S214403F80FAD007EBC009CC468046DCF80C309C459E
S214403F9007D16DE1002A80F27B81DB689C4500F00A
S214403FA06781596821F003018A1B0F2AF2DDD3F896
S214403FB00CC0D3F8088000939C19284646F00106AA
S214403FC042F001055E60C8F80CC0CCF808807C6101
S214403FD03C61C4F80CE0C4F808E065605A5000F054
S214403FE0FBFA009B03F108041EE0102920D800F0DD
S214403FF0EDFA102618230220794F3B44A3F108021D
S2144040005C68944200F03D816368E168A66823F0EE
S2144040100303234428465A68F16042F001028E604A
S2144040205A6000F0D9FA0834204603B0BDE8F08F55
S21440403000240C2320462B6003B0BDE8F08F4020C0
S2144040404FF400734FF03F0E4AE72344E1685A6846
S214404050A66842F00102F16028468E605A6000F081
S214404060BBFA0834204603B0BDE8F08F2344284608
S2144040705A6842F001025A6000F0AEFA0834204610
S21440408003B0BDE8F08FBC68636823F00308B04512
S21440409004D3A8EB06030F2B00F38580DFF8589176
S2144040A0504BD9F800201B680132334404EB080A11
S2144040B000F0558103F580530F3323F47F6B2BF0CC
S2144040C00F0B5946284600F08DFA411C024600F078
S2144040D0FC80824500F2F780434B196859441960CA
S2144040E000F04D81D9F8000001301BBFA2EB0A0A50
S2144040F05144C9F80020196012F0070100F01581FC
S214404100C1F10800C1F580510244083102EB0B09A9
S214404110C9F30B09A1EB09094946284601930092C9
S21440412000F060FA431C9DE80C0000F04381801AC2
S214404130484440F001001968BA604944BC425060A7
S214404140196017D0B8F10F0F40F2FB806068A8F1F5
S2144041500C0222F0070204EB020E00F001004FF0C2
S214404160050C10430F2A6060CEF804C0CEF808C095
S21440417000F217811D4BBC681A68914288BF1960CF
S2144041801B4B1A689142626888BF196022F003028E
S2144041909642A2EB060301D80F2B04DC284600F01B
S2144041A01BFA002440E7A21943F0010346F001063B
S2144041B066602846BA60536000F00EFA083420461F
S2144041C003B0BDE8F08F142B71D9542B00F2A380B6
S2144041D0330B03F16F0003F16E0EC30080E600BFA1
S2144041E050044020E00D4020B00D4020D80D402027
S2144041F0DC0D402058044020580840205A0A042A23
S2144042005BD9142A00F2AE8002F15C01C9005B3231
S21440421007EB010C7958ACF1080C8C4500F088800F
S2144042204A6822F00302934273D289688C45F7D1DC
S214404230DCF80C207B68E260C4F808C09460CCF8D8
S2144042400C408FE6A11946F0010C42F00106C4F876
S21440425004C0284679613961C1F80CE0C1F808E02D
S2144042604E60E25000F0B8F90834DDE67B6879E647
S21440427008F1010818F0030F0CF1080C7FF485AE26
S2144042802DE0DC68A34208BF02303FF43EAEBBE6FA
S21440429019441C464A68DB6854F8086F42F001022D
S2144042A04A602846F3609E6000F096F9BCE603F14B
S2144042B05C0003F15B0EC30012E69A0902F1390175
S2144042C0C9003832A4E7BC4254D0BC68626822F0C9
S2144042D003025DE759F80839994540F0868010F0AA
S2144042E0030F00F1FF30F5D17B6823EA04037B60BF
S2144042F064009C423FF6C7AE002C3FF4C4AE1C425E
S21440430040467FF43EAE64001C4200F10400FAD002
S21440431037E68C468CE7B3F5AA7F15D8F30B03F146
S214404320780003F1770EC300DAE54FF48051EDE6EE
S2144043307B689210012101FA02F213437B606246C9
S21440434079E70123536029E740F25452934222D83A
S214404350B30C03F17D0003F17C0EC300C0E503F10E
S214404360100BAEE6542A29D81A0B02F16F01C90089
S2144043706E324DE7204B196859441960B2E6CAF3CD
S2144043800B0000287FF4AEAE08EB0B03BA6843F090
S21440439001035360EEE67F204FF47E734FF07E0EAF
S2144043A09EE504F108012846009303F0E1FD009BDA
S2144043B01968DFE601204FF00009BCE6B2F5AA7F97
S2144043C005D8DA0B02F17801C900773220E740F2CF
S2144043D054518A4205D89A0C02F17D01C9007C32BC
S2144043E016E74FF47E717E2212E77B6880E7F0087E
S2144043F006F1080300E600BFB00D4020844641EABF
S214404400000313F003036DD1403A41D351F8043B07
S21440441040F8043B51F8043B40F8043B51F8043B59
S21440442040F8043B51F8043B40F8043B51F8043B49
S21440443040F8043B51F8043B40F8043B51F8043B39
S21440444040F8043B51F8043B40F8043B51F8043B29
S21440445040F8043B51F8043B40F8043B51F8043B19
S21440446040F8043B51F8043B40F8043B51F8043B09
S21440447040F8043B51F8043B40F8043B51F8043BF9
S21440448040F8043B51F8043B40F8043B403ABDD268
S214404490303211D351F8043B40F8043B51F8043B0A
S2144044A040F8043B51F8043B40F8043B51F8043BC9
S2144044B040F8043B103AEDD20C3205D351F8043B99
S2144044C040F8043B043AF9D2043208D0D2071CBF65
S2144044D011F8013B00F8013B01D30B88038060468E
S2144044E0704700BF082A13D38B078DD010F0030304
S2144044F08AD0C3F10403D21ADB071CBF11F8013B74
S21440450000F8013B80D331F8023B20F8023B7BE7C2
S214404510043AD9D3013A11F8013B00F8013BF9D2ED
S2144045200B7803704B7843708B7883706046704787
S21440453070B4860746D0541E002A41D0CAB20346FD
S21440454002E014F1FF343BD303F8012B9D07F8D16A
S214404550032C2ED9CDB245EA05250F2C45EA054554
S21440456019D903F110022646103E0F2E42F8105C71
S21440457042F80C5C42F8085C42F8045C02F1100217
S214404580F2D8A4F1100222F00F0204F00F04103209
S214404590032C13440DD91E462246043A032A46F8F5
S2144045A0045BFAD8221F22F003020432134404F0BC
S2144045B003042CB1C9B21C4403F8011B9C42FBD136
S2144045C070BC704714460346C2E700BF014803F07C
S2144045D077BF00BF480E4020014803F073BF00BFBE
S2144045E0480E402038B5074C002305460846236051
S2144045F0FCF7E2FE431C00D038BD2368002BFBD0FE
S2144046002B6038BD5C0E402000290CBF02220022E1
S2144046104FF4806300F000B82DE9F043614C256804
S21440462083B004460F4690461E4615B1AB6B002B32
S21440463064D0B8F1020F06D0B8F1010F00F29F80A7
S214404640002EC0F29C80636ED80734D5214628469B
S21440465003F010FB216B41B104F14003994202D0B4
S214404660284603F085FC00232363B4F90C3000226F
S214404670A26162601A063AD423F44A6323F0030325
S214404680B8F1020FA3811DD001AB6A4621462846E9
S21440469003F01AFFA3891843A081002E32D1009E52
S2144046A03046FFF7EBFB074600286BD0A38943F064
S2144046B08003A38128E0A3899905C7D4A06D03F0A1
S2144046C0FFFEC3E70025616E002604F1430243F077
S2144046D002030120A660CE07A381226022616061AA
S2144046E001D498053ED5284603B0BDE8F08321693D
S2144046F0284603F03DFCB4F90C30BDE7284603F0ED
S21440470011FB96E7002FCBD0AB6B002B33D0009B32
S214404710B4F90C2027609E421CBF42F40062A2817E
S214404720B8F1010F04BF42F00102A28192B212F02A
S2144047300803276166610ED0D1071AD5656E7642AA
S214404740002315F00105A661A36009D00025284680
S21440475003B0BDE8F083A360656E15F00105F5D1A2
S2144047609305C0D4A06D03F0ADFE284603B0BDE867
S214404770F083A660F0E7284603F0D4FAC7E74FF088
S214404780FF35B0E7DDF80090B14504D04846FFF766
S21440479075FB074620B9B4F90C304FF0FF3592E769
S2144047A04E4683E7240040200EB4F0B59CB021ABC3
S2144047B00F4953F8042B019305466FF000440868F0
S2144047C002954FF402774FF6FF7602A90695ADF8AC
S2144047D0147004940794ADF8166000F07FF8029BBE
S2144047E000221A701CB0BDE8F04003B0704700BF0E
S2144047F024004020000000000000000000000000F0
S21440480090F800F06DE9024520F007016FF0000CCB
S21440481010F0070491F820F040F049804FF0000473
S2144048206FF00700D1E9002391F840F000F108004E
S21440483082FA4CF2A4FA8CF283FA4CF3A2FA8CF386
S2144048404BBBD1E9022382FA4CF200F10800A4FAED
S2144048508CF283FA4CF3A2FA8CF3E3B9D1E9042341
S21440486082FA4CF200F10800A4FA8CF283FA4CF378
S214404870A2FA8CF37BB9D1E9062301F1200182FA32
S2144048804CF200F10800A4FA8CF283FA4CF3A2FA38
S2144048908CF3002BC6D0002A04BF04301A4612BA46
S2144048A0B2FA82F2FDE8024500EBD2007047D1E949
S2144048B0002304F00305C4F100004FEAC50514F0D8
S2144048C0040F91F840F00CFA05F562EA05021CBFA9
S2144048D063EA050362464FF00004A9E72DE9F04F6E
S2144048E0C3B00C460B9192460F930C9003F0D6FD46
S2144048F003681A931846FFF783FFA3891990190691
S21440490003D52369002B01F0038000230DF1C8096D
S2144049101393159314932793269318931B930993F5
S214404920CDF89490C846169317939AF8003054469C
S214404930E3B1252B02D119E0252B03D014F8013F13
S214404940002BF9D1A4EB0A0585B1269B279AC8F817
S21440495000A001332A44072BC8F804502792269318
S2144049607FDC08F10808099B2B4409932378002B29
S2144049707FD000231A468DF8773019460D939B4614
S2144049804FF0FF3063780A9004F1010A0AF1010AF9
S214404990A3F12000582800F2C183DFE810F0380267
S2144049A0BF03BF034002BF03BF03BF03BF03BF0332
S2144049B0BF0345020302BF035D006B02BF038602CE
S2144049C09D039D039D039D039D039D039D039D03A2
S2144049D09D03BF03BF03BF03BF03BF03BF03BF03A4
S2144049E0BF03BF03BF0337035703BF035703BF03CA
S2144049F0BF03BF03BF039803BF03BF03AD03BF039B
S214404A00BF03BF03BF03BF035902BF03BF031E0359
S214404A10BF03BF03BF03BF03BF03BF03BF03BF0341
S214404A20BF03BF03C602DB025703570357038B027D
S214404A30DB02BF03BF039002BF039D02CC01B4025A
S214404A400802BF03E101BF037E00BF03BF030D02A0
S214404A500D980F9340420D904BF0040B9AF800309F
S214404A6094E725AA0B990C9804F05AFB40B9C8461F
S214404A7079E7279B23B10C980B9925AA04F050FBA5
S214404A800B9B9B8913F0400F099B18BF4FF0FF33D9
S214404A900993099843B0BDE8F08F1BF0200F11939F
S214404AA040F0DD810F9A1BF0100F134640F06E85E4
S214404AB01BF0400F00F06A8514880432002501235D
S214404AC00F9200278DF877700A994A1C00F065828D
S214404AD02BF08002079254EA050240F064820029D7
S214404AE040F03C84002B40F0D7841BF001030E932B
S214404AF000F0048642AE302306F8413D0A9B0E9AEB
S214404B009342B8BF134608930023129317B1089BED
S214404B1001330893079B13F00203109302D0089BBF
S214404B2002330893079B13F0840540F00E830D9BD9
S214404B30089AA3EB020BBBF1000F40F30683BBF1D0
S214404B40100F279C269A29DD43462146A846102763
S214404B500C9C0B9D06E0ABF1100BBBF1100F03F164
S214404B60080318DD0132B74826921031072A2791EC
S214404B7083E88100EFDD25AA2946204604F0D0FAD6
S214404B8000287FF47DAFABF1100BBBF1100F2799D7
S214404B90269A4B46E6DC45460C4698460132A94BDB
S214404BA026925C44072A279488E8080800F39884ED
S214404BB09DF8777008F1080877B1269B01330134D9
S214404BC00DF177010122072B2794269388E80600EB
S214404BD000F3DB8308F10808109B6BB1269B01337A
S214404BE002341EA90222072B2794269388E8060043
S214404BF000F3D68308F10808802D00F015830A9B41
S214404C000E9A9F1A002F36DD102F269B8E4D27DDDD
S214404C1042462146B0464FF0100B2E460C9C0B9D4C
S214404C2004E0103F102F02F1080215DD0133103169
S214404C30072B2791269382E84008F2DD25AA2946CD
S214404C40204604F06DFA00287FF41AAF103F102F6C
S214404C502799269B4A46E9DC35460C46464690460A
S214404C6001333C44072B2794269388E8A00000F3A2
S214404C70818308F10808079BDF0500F16882269BC0
S214404C800E99C8F8006001330C44072B2794C8F8E7
S214404C900410269300F34D8308F10808079B5B0732
S214404CA03AD50D9B089A9D1A002D35DD102D269B72
S214404CB020DD10260C9FDDF82CB004E0103D102DB2
S214404CC008F1080816DD01335E4A26931034072B98
S214404CD0279488E84400F1DD25AA5946384604F072
S214404CE01FFA00287FF4CCAE103D102D279C269B43
S214404CF0C846E8DC0133534A26932C44072B2794B6
S214404D0088E8240008DD25AA0B990C9804F008FAD8
S214404D1000287FF4B5AE279C099B0D9A08998A42D5
S214404D20ACBF9B185B180993002C40F00D83002302
S214404D302693C846F9E511931BF0200340F0E38123
S214404D401BF0100240F02E841BF0400300F02A8433
S214404D500F9913460A4604320C880F920025B0E697
S214404D600F9A1193166800248DF87740151D002E73
S214404D7000F0A7860A9A531C00F009862146304662
S214404D8003F036FC002800F0E186831B0E930A945D
S214404D900F95CDF81CB023EAE373089312949DF860
S214404DA07770B3E69AF8003001222B21EEE54BF0FF
S214404DB0200B9AF80030E9E51193002A40F09587D9
S214404DC0224B18931BF0200F40F011810F9A1BF0D6
S214404DD0100F134640F0E1831BF0400F00F0DD83D8
S214404DE0043314880F9300251BF0010F00F00C814C
S214404DF054EA050300F0088130239DF844208DF8DE
S214404E0078308DF879204BF0020B022359E69AF859
S214404E10003000297FF4BAAD01222021B6E54BF0E0
S214404E20010B9AF80030B1E50F9C23680D931846A5
S214404E300028234603F10403FFF60AAE0F939AF8C0
S214404E400030A3E5BC9D4000CC9D40009C9D4000AA
S214404E504BF0100B1BF0200F11933FF423AE0F9D29
S214404E60073525F0070303F10802D3E900450F9202
S214404E70012326E69AF800302A2B0AF1010400F0B6
S214404E802787A3F130000928A24600F2AD8600230A
S214404E901C461AF8013B04EB840400EB4404A3F1DF
S214404EA030000928F5D90A9472E54BF0800B9AF841
S214404EB000306BE54BF0400B9AF8003066E59AF808
S214404EC000306C2B03BF9AF801304BF0200B0AF1F0
S214404ED0010A4BF0100B59E5002A40F011871BF0F1
S214404EE0200F40F0F9841BF0100F40F0AC841BF00C
S214404EF0400F00F0A8840F9A136804320F92BDF852
S214404F0024201A8011E50F99B34B0C681893302271
S214404F10782304318DF8793011934BF0020B0F91C2
S214404F2000258DF878200223CBE50F9911930A6867
S214404F308DF8A02000230A461F468DF877300432AD
S214404F4001230893CDF81CB00A9712970F920E9340
S214404F5028AEDFE51193002A40F0EA861BF0200FCA
S214404F605DD11BF0100F40F008831BF0400F00F09F
S214404F7004830F99B1F900400431E51722462B46C9
S214404F800F91002A73F1000358DB0A999DF8777059
S214404F904A1C4FF001037FF49BAD54EA050200F033
S214404FA0DF81CDF81CB0012B00F07B82022B40F055
S214404FB0068218984E46230904F00F0143EA05730B
S214404FC02A091C461546435C06F8013D54EA05038B
S214404FD0F1D1A9EB06030E9390E51193002A40F019
S214404FE0A3867E4B18931BF0200F3FF4EFAE0F9D29
S214404FF0073525F0070303F108021BF0010F0F9257
S214405000D3E900457FF4F4AE02235AE51193002A13
S21440501040F086864BF0100B1BF0200FA1D00F9D62
S214405020073525F00705D5E90023002A05F10801D4
S2144050301D4673F100030F911446A6DA2D276442ED
S21440504065EB45058DF8777001233DE51193002A01
S21440505040F062860F9D073525F0070303F10802EE
S2144050600F921A6815925B681493149B159D23F053
S2144050700044284621464FF0FF32594B04F054FB7B
S214405080002840F04A83284621464FF0FF32544BD2
S21440509004F02CFB002840F0408315A80DC8149956
S2144050A004F01AFB002840F030859DF877704D4E8E
S2144050B04D4B2BF080000790119803220021089258
S2144050C00A914728D8BF1E460E9212911EE54BF015
S2144050D0080B9AF8003059E4A3F1300000231C4630
S2144050E01AF8013B04EB840400EB4404A3F13000BF
S2144050F00928F5D90D944BE44BF0100B11931BF097
S21440510020033FF41DAE0F9D073525F0070303F13E
S2144051100802D3E900450F920023D2E41193002AF7
S21440512040F0E785119A002A3FF4A3AC0023012102
S2144051301F4608918DF8A020CDF81CB08DF877302A
S2144051400A9312930E9128AEE4E4279C34E5119B13
S214405150652B40F3A78015A80DC8149904F0B2FA41
S214405160002800F05081269B204AC8F800200133D2
S21440517001340122072B27942693C8F8042000F315
S2144051806A8308F108081F9B139A279C934203DB07
S214405190079BDD077FF582AD269B19991A9AC8F8BA
S2144051A0002001330C44072BC8F80410279426939C
S2144051B000F39E8308F10808139B5E1E002E7FF7BF
S2144051C06DAD102E269B0A4D40F3F58122461027E2
S2144051D0DDF830B00B9C13E09C9D4000889D40005D
S2144051E0FFFFEF7F7C9D4000789D4000B89D4000CB
S2144051F0CC9D400008F10808103E102E40F3DA819E
S21440520001331032072B2792269388E8A000F1DD61
S21440521025AA2146584603F083FF00287FF430AC89
S214405220279A269BC846E7E70D9B089A9F1A002FA9
S2144052307FF7E5AC102F269BB64D27DD424621462C
S214405240B0464FF0100B2E460C9C0B9D04E0103FD2
S214405250102F02F1080215DD01331031072B27917C
S214405260269382E84008F2DD25AA2946204603F028
S21440527057FF00287FF404AC103F102F2799269B39
S2144052804A46E9DC35460C464646904601333C44A1
S214405290072B2794269388E8A00000F3328208F173
S2144052A00808ACE4139B269F012B40F3FE81013790
S2144052B001340123072F27942697C8F80060C8F8C2
S2144052C0043000F3038208F10808199A1A9BC8F8BC
S2144052D0003001371444072F27942697C8F8042037
S2144052E000F3008208F1080815A80DC8149904F0C8
S2144052F0E9F9139B002840F00181013B0137013654
S2144053001C44072F26972794C8F80060C8F8043036
S21440531000F3278108F108081B9AC8F804200137D3
S214405320144421AB072F27942697C8F800307FF700
S214405330B3AC25AA0B990C9803F0F2FE00287FF434
S2144053409FAB279CC846A9E425AA0B990C9803F066
S214405350E7FE00283FF4EBACFFF792BBDDF81CB04D
S214405360012B00F03481022B25D1CDF81CB000244F
S21440537000251EE625AA0B990C9803F0D1FE0028BE
S2144053807FF47EAB279CC84675E425AA0B990C98FB
S21440539003F0C6FE00287FF473AB279CC8461BE488
S2144053A025AA0B990C9803F0BBFE00287FF468AB47
S2144053B0279CC84620E4CDF81CB00024002549466A
S2144053C000E03146E20842EA4572E80804F0070386
S2144053D005461446303354EA050201F8013C01F113
S2144053E0FF36EED1079AD2077FF5F3AD302B3FF468
S2144053F0F0AD0239302306F8013CA9EB01030E93C9
S2144054000E46FFF77BBB1F99002940F32E82129B66
S214405410139A9342A8BF1346002B1F460DDD269BCA
S214405420C8F8006001333C44072B2794C8F8047042
S214405430269300F31F8308F10808129B002FA8BF8D
S214405440DB1B002B1F4640F3D680102F269B314D8A
S21440545040F3ED8142462146B0464FF0100B2E46B3
S2144054600C9C0B9D04E00832103F102F40F3DB816C
S21440547001331031072B2791269382E84008F2DD4E
S21440548025AA2946204603F04BFE00287FF4F8AABA
S2144054902799269B4A46E7E70A9B0E934E46FFF718
S2144054A02DBB002D08BF0A2CC0F08F804E462046EC
S2144054B029460A22002304F04DF9303206F8012D21
S2144054C02046294600230A2204F044F904460D46A5
S2144054D054EA0503EBD1A9EB06030E93FFF70EBB88
S2144054E025AA0B990C9803F01BFE00287FF4C8AA47
S2144054F09DF87770279CC846FFF75EBB5E1E002E61
S2144055007FF70AAF102E034D22DD22464FF0100BD8
S2144055100C9C06E0CC9D4000103E102E08F108087A
S21440552015DD01371032072F2792269788E8200886
S214405530F2DD25AA0B99204603F0F2FD00287FF401
S2144055409FAA103E102E279A269FC846E9DC14468E
S21440555001373444072F2794269788E860007FF762
S214405560D9AE25AA0B990C9803F0DAFD00287FF4F3
S21440557087AA279C269FC846CEE60F9A14681346ED
S2144055800433E5170F9322462B46FAE404321C6890
S2144055900F9201230025FFF794BA1C6804330F933B
S2144055A0002521E40F990A4604320C680F92002524
S2144055B0FFF787BA144601333444072B27942693C3
S2144055C088E860007FF768ABB3E6DDF81CB0CDF83E
S2144055D01CB042AE3034012306F8414D0E93FFF71F
S2144055E08DBA25AA0B990C9803F09AFD00287FF4F3
S2144055F047AA279CC8461F9A139B9A4244DB079BA0
S214405600D90741D4139B12989A1A1D1A9542A8BFDF
S2144056101546002D0EDD2699C8F804500131064483
S2144056202C440729C8F800602794269100F33B8253
S21440563008F10808002DACBF561B1646002E7FF713
S2144056402DAB102E269BB04DB5DD22461027DDF83B
S21440565030B00B9C04E008F10808103E102EA9DD7F
S21440566001331032072B2792269388E8A000F2DDFC
S21440567025AA2146584603F053FD00287FF400AA89
S214405680279A269BC846E8E7269B19981A99C8F891
S214405690001001330444072B2794C8F804002693CF
S2144056A000F3F58108F10808ACE7079BDA073FF5F9
S2144056B0FEAD013701340123072F27942697C8F8FB
S2144056C00060C8F804307FF725AE4AE725AA0B9954
S2144056D00C9803F025FD00287FF4D2A9279C269F2E
S2144056E0C846F2E525AA0B990C9803F019FD002848
S2144056F07FF4C6A9279C269FC846F5E54E46FFF789
S214405700FDB925AA0B990C9803F00AFD00287FF4F2
S214405710B7A9279CC846FFF772BA159C2246204672
S214405720149C2346214603F0FFFF002840F0868263
S2144057300A9B0133119B23F020030E9300F0E28175
S214405740472B00F01E814BF480730793149B1F1E5B
S214405750159B0893BBBF3B4603F1004700232D2310
S2144057601093119B662B00F0BB81462B00F0DF8028
S2144057700E9B089A452B0CBF0A9B0A9D23A820A97E
S21440578008BF5D1C049003911FA802213B4602906F
S214405790019500910C9801F0A3FA119B672B0646E1
S2144057A040F0E0811BF0010F00F046827419169A13
S2144057B00898179B394603F085FF002840F065811E
S2144057C0239BA34206D230215A1C23921970239B56
S2144057D09C42F9D89B1B13930E9B472B00F0E98005
S2144057E0119B652B40F3CD81119B662B1F9B12931B
S2144057F000F09E81139B129A1946914200F38A81CB
S2144058001BF0010F40F0138222EAE27308936723ED
S2144058100E921193109B002B40F0C4800A939DF883
S2144058207770FFF773B935460C46464690460133C7
S2144058303C44072B2794269388E8A0003FF7D1AE38
S21440584008F10808D7E60F9A136804320F92099AAF
S2144058501A60FFF76AB825AA0B990C9803F060FC0B
S21440586000287FF40DA9C8468DE4269B274AC8F831
S2144058700020013301340122072B27942693C8F8D1
S214405880042072DC08F1080829B9139B1BB9079B52
S214405890D8077FF503AA269B19981A9AC8F80020BD
S2144058A0013302462244072B2792C8F80400269369
S2144058B000F38D8108F108080029C0F2658113992C
